{
  "contractName": "Marketplace",
  "abi": [
    {
      "inputs": [
        {
          "internalType": "uint256",
          "name": "_feePercent",
          "type": "uint256"
        }
      ],
      "stateMutability": "nonpayable",
      "type": "constructor"
    },
    {
      "inputs": [],
      "name": "AlreadyTokenExist",
      "type": "error"
    },
    {
      "inputs": [],
      "name": "ItemNotExist",
      "type": "error"
    },
    {
      "inputs": [],
      "name": "ItemSoldOut",
      "type": "error"
    },
    {
      "inputs": [],
      "name": "NotEnoughEtherCoverItemPrice",
      "type": "error"
    },
    {
      "inputs": [],
      "name": "NotTokneOwner",
      "type": "error"
    },
    {
      "inputs": [],
      "name": "PriceEqualOrLessThenZero",
      "type": "error"
    },
    {
      "inputs": [],
      "name": "TokenNotExist",
      "type": "error"
    },
    {
      "inputs": [],
      "name": "TokenNotinMarketplace",
      "type": "error"
    },
    {
      "anonymous": false,
      "inputs": [
        {
          "indexed": false,
          "internalType": "uint256",
          "name": "itemId",
          "type": "uint256"
        },
        {
          "indexed": true,
          "internalType": "address",
          "name": "nft",
          "type": "address"
        },
        {
          "indexed": false,
          "internalType": "uint256",
          "name": "tokenId",
          "type": "uint256"
        },
        {
          "indexed": false,
          "internalType": "uint256",
          "name": "price",
          "type": "uint256"
        },
        {
          "indexed": true,
          "internalType": "address",
          "name": "seller",
          "type": "address"
        },
        {
          "indexed": true,
          "internalType": "address",
          "name": "buyer",
          "type": "address"
        }
      ],
      "name": "Bought",
      "type": "event"
    },
    {
      "anonymous": false,
      "inputs": [
        {
          "indexed": false,
          "internalType": "uint256",
          "name": "itemId",
          "type": "uint256"
        },
        {
          "indexed": true,
          "internalType": "address",
          "name": "nft",
          "type": "address"
        },
        {
          "indexed": false,
          "internalType": "uint256",
          "name": "tokenId",
          "type": "uint256"
        },
        {
          "indexed": false,
          "internalType": "uint256",
          "name": "price",
          "type": "uint256"
        },
        {
          "indexed": true,
          "internalType": "address",
          "name": "seller",
          "type": "address"
        }
      ],
      "name": "Offered",
      "type": "event"
    },
    {
      "inputs": [],
      "name": "feeAccount",
      "outputs": [
        {
          "internalType": "address payable",
          "name": "",
          "type": "address"
        }
      ],
      "stateMutability": "view",
      "type": "function",
      "constant": true
    },
    {
      "inputs": [],
      "name": "feePercent",
      "outputs": [
        {
          "internalType": "uint256",
          "name": "",
          "type": "uint256"
        }
      ],
      "stateMutability": "view",
      "type": "function",
      "constant": true
    },
    {
      "inputs": [],
      "name": "itemCount",
      "outputs": [
        {
          "internalType": "uint256",
          "name": "",
          "type": "uint256"
        }
      ],
      "stateMutability": "view",
      "type": "function",
      "constant": true
    },
    {
      "inputs": [
        {
          "internalType": "uint256",
          "name": "",
          "type": "uint256"
        }
      ],
      "name": "items",
      "outputs": [
        {
          "internalType": "uint256",
          "name": "itemId",
          "type": "uint256"
        },
        {
          "internalType": "contract IERC721",
          "name": "nft",
          "type": "address"
        },
        {
          "internalType": "uint256",
          "name": "tokenId",
          "type": "uint256"
        },
        {
          "internalType": "uint256",
          "name": "price",
          "type": "uint256"
        },
        {
          "internalType": "address payable",
          "name": "seller",
          "type": "address"
        },
        {
          "internalType": "bool",
          "name": "sold",
          "type": "bool"
        }
      ],
      "stateMutability": "view",
      "type": "function",
      "constant": true
    },
    {
      "inputs": [
        {
          "internalType": "contract NFT",
          "name": "_nft",
          "type": "address"
        },
        {
          "internalType": "uint256",
          "name": "_tokenId",
          "type": "uint256"
        },
        {
          "internalType": "uint256",
          "name": "_price",
          "type": "uint256"
        }
      ],
      "name": "makeItem",
      "outputs": [],
      "stateMutability": "nonpayable",
      "type": "function"
    },
    {
      "inputs": [
        {
          "internalType": "contract NFT",
          "name": "_nft",
          "type": "address"
        },
        {
          "internalType": "uint256",
          "name": "_itemId",
          "type": "uint256"
        }
      ],
      "name": "purchaseItem",
      "outputs": [],
      "stateMutability": "payable",
      "type": "function",
      "payable": true
    },
    {
      "inputs": [
        {
          "internalType": "uint256",
          "name": "_itemId",
          "type": "uint256"
        }
      ],
      "name": "getTotalPrice",
      "outputs": [
        {
          "internalType": "uint256",
          "name": "",
          "type": "uint256"
        }
      ],
      "stateMutability": "view",
      "type": "function",
      "constant": true
    },
    {
      "inputs": [
        {
          "internalType": "uint256[]",
          "name": "ids",
          "type": "uint256[]"
        }
      ],
      "name": "likeViewBatch",
      "outputs": [
        {
          "components": [
            {
              "internalType": "uint256",
              "name": "itemId",
              "type": "uint256"
            },
            {
              "internalType": "contract IERC721",
              "name": "nft",
              "type": "address"
            },
            {
              "internalType": "uint256",
              "name": "tokenId",
              "type": "uint256"
            },
            {
              "internalType": "uint256",
              "name": "price",
              "type": "uint256"
            },
            {
              "internalType": "address payable",
              "name": "seller",
              "type": "address"
            },
            {
              "internalType": "bool",
              "name": "sold",
              "type": "bool"
            }
          ],
          "internalType": "struct Marketplace.Item[]",
          "name": "",
          "type": "tuple[]"
        }
      ],
      "stateMutability": "view",
      "type": "function",
      "constant": true
    },
    {
      "inputs": [
        {
          "internalType": "contract NFT",
          "name": "_nft",
          "type": "address"
        },
        {
          "internalType": "uint256",
          "name": "_tokenId",
          "type": "uint256"
        }
      ],
      "name": "nftInMarket",
      "outputs": [
        {
          "internalType": "bool",
          "name": "",
          "type": "bool"
        }
      ],
      "stateMutability": "view",
      "type": "function",
      "constant": true
    },
    {
      "inputs": [
        {
          "internalType": "uint256",
          "name": "_itemId",
          "type": "uint256"
        }
      ],
      "name": "cancelItem",
      "outputs": [],
      "stateMutability": "nonpayable",
      "type": "function"
    },
    {
      "inputs": [
        {
          "internalType": "uint256",
          "name": "_tokenId",
          "type": "uint256"
        }
      ],
      "name": "lastValidTransaction",
      "outputs": [
        {
          "internalType": "uint256",
          "name": "",
          "type": "uint256"
        }
      ],
      "stateMutability": "view",
      "type": "function",
      "constant": true
    }
  ],
  "bytecode": "0x60c06040523480156200001157600080fd5b5060405162002139380380620021398339818101604052810190620000379190620000c2565b60016000819055503373ffffffffffffffffffffffffffffffffffffffff1660808173ffffffffffffffffffffffffffffffffffffffff16815250508060a0818152505050620000f4565b600080fd5b6000819050919050565b6200009c8162000087565b8114620000a857600080fd5b50565b600081519050620000bc8162000091565b92915050565b600060208284031215620000db57620000da62000082565b5b6000620000eb84828501620000ab565b91505092915050565b60805160a0516120116200012860003960008181610ee501526111340152600081816104790152610cc401526120116000f3fe60806040526004361061009c5760003560e01c80636cb672e4116100645780636cb672e4146101795780637fd6f15c146101b6578063a89a4db8146101e1578063bfb231d21461021e578063ca7dd37514610260578063fa00afc71461029d5761009c565b806332724900146100a157806340f49425146100bd57806351563f8e146100fa57806365e17c9d146101235780636bfb0d011461014e575b600080fd5b6100bb60048036038101906100b6919061162e565b6102c6565b005b3480156100c957600080fd5b506100e460048036038101906100df919061166e565b61071c565b6040516100f191906116aa565b60405180910390f35b34801561010657600080fd5b50610121600480360381019061011c919061166e565b6109ad565b005b34801561012f57600080fd5b50610138610cc2565b60405161014591906116e6565b60405180910390f35b34801561015a57600080fd5b50610163610ce6565b60405161017091906116aa565b60405180910390f35b34801561018557600080fd5b506101a0600480360381019061019b919061185a565b610cec565b6040516101ad9190611a65565b60405180910390f35b3480156101c257600080fd5b506101cb610ee3565b6040516101d891906116aa565b60405180910390f35b3480156101ed57600080fd5b506102086004803603810190610203919061162e565b610f07565b6040516102159190611a96565b60405180910390f35b34801561022a57600080fd5b506102456004803603810190610240919061166e565b6110a5565b60405161025796959493929190611ac0565b60405180910390f35b34801561026c57600080fd5b506102876004803603810190610282919061166e565b61112e565b60405161029491906116aa565b60405180910390f35b3480156102a957600080fd5b506102c460048036038101906102bf9190611b21565b611191565b005b60026000540361030b576040517f08c379a000000000000000000000000000000000000000000000000000000000815260040161030290611bd1565b60405180910390fd5b6002600081905550600061031e8261112e565b90506000600260008481526020019081526020016000209050600083111580610348575060015483115b1561037f576040517f8ac01ea700000000000000000000000000000000000000000000000000000000815260040160405180910390fd5b813410156103b9576040517fe991fb3e00000000000000000000000000000000000000000000000000000000815260040160405180910390fd5b600115158160040160149054906101000a900460ff16151503610408576040517f2a2c2f8000000000000000000000000000000000000000000000000000000000815260040160405180910390fd5b8060040160009054906101000a900473ffffffffffffffffffffffffffffffffffffffff1673ffffffffffffffffffffffffffffffffffffffff166108fc82600301549081150290604051600060405180830381858888f19350505050158015610476573d6000803e3d6000fd5b507f000000000000000000000000000000000000000000000000000000000000000073ffffffffffffffffffffffffffffffffffffffff166108fc8260030154846104c19190611c20565b9081150290604051600060405180830381858888f193505050501580156104ec573d6000803e3d6000fd5b5060018160040160146101000a81548160ff0219169083151502179055508060010160009054906101000a900473ffffffffffffffffffffffffffffffffffffffff1673ffffffffffffffffffffffffffffffffffffffff166323b872dd303384600201546040518463ffffffff1660e01b815260040161056f93929190611c63565b600060405180830381600087803b15801561058957600080fd5b505af115801561059d573d6000803e3d6000fd5b505050508373ffffffffffffffffffffffffffffffffffffffff166383aa44de8260040160009054906101000a900473ffffffffffffffffffffffffffffffffffffffff1633846003015485600201546040518563ffffffff1660e01b815260040161060c9493929190611cbb565b600060405180830381600087803b15801561062657600080fd5b505af115801561063a573d6000803e3d6000fd5b505050503373ffffffffffffffffffffffffffffffffffffffff168160040160009054906101000a900473ffffffffffffffffffffffffffffffffffffffff1673ffffffffffffffffffffffffffffffffffffffff168260010160009054906101000a900473ffffffffffffffffffffffffffffffffffffffff1673ffffffffffffffffffffffffffffffffffffffff167f8b4c9c8a607d67b321582dd8461041b1dc2ceeca70c8b7f37f8e02095cf2e76d868560020154866003015460405161070693929190611d00565b60405180910390a4505060016000819055505050565b60008060015490506000600260008381526020019081526020016000206040518060c0016040529081600082015481526020016001820160009054906101000a900473ffffffffffffffffffffffffffffffffffffffff1673ffffffffffffffffffffffffffffffffffffffff1673ffffffffffffffffffffffffffffffffffffffff16815260200160028201548152602001600382015481526020016004820160009054906101000a900473ffffffffffffffffffffffffffffffffffffffff1673ffffffffffffffffffffffffffffffffffffffff1673ffffffffffffffffffffffffffffffffffffffff1681526020016004820160149054906101000a900460ff16151515158152505090508381604001510361085557600015158160a00151151503610854578060000151925050506109a8565b5b5b60008211156109a157818061086a90611d37565b925050600260008381526020019081526020016000206040518060c0016040529081600082015481526020016001820160009054906101000a900473ffffffffffffffffffffffffffffffffffffffff1673ffffffffffffffffffffffffffffffffffffffff1673ffffffffffffffffffffffffffffffffffffffff16815260200160028201548152602001600382015481526020016004820160009054906101000a900473ffffffffffffffffffffffffffffffffffffffff1673ffffffffffffffffffffffffffffffffffffffff1673ffffffffffffffffffffffffffffffffffffffff1681526020016004820160149054906101000a900460ff16151515158152505090508381604001510361099c57600015158160a0015115150361099b578060000151925050506109a8565b5b610856565b6000925050505b919050565b6002600054036109f2576040517f08c379a00000000000000000000000000000000000000000000000000000000081526004016109e990611bd1565b60405180910390fd5b600260008190555060006002600083815260200190815260200160002090508060040160009054906101000a900473ffffffffffffffffffffffffffffffffffffffff1673ffffffffffffffffffffffffffffffffffffffff163373ffffffffffffffffffffffffffffffffffffffff1614610a9a576040517fc45b9fdf00000000000000000000000000000000000000000000000000000000815260040160405180910390fd5b60008211158015610aac575060015482115b15610ae3576040517f8ac01ea700000000000000000000000000000000000000000000000000000000815260040160405180910390fd5b600115158160040160149054906101000a900460ff16151503610b32576040517f2a2c2f8000000000000000000000000000000000000000000000000000000000815260040160405180910390fd5b60018160040160146101000a81548160ff0219169083151502179055508060010160009054906101000a900473ffffffffffffffffffffffffffffffffffffffff1673ffffffffffffffffffffffffffffffffffffffff166323b872dd303384600201546040518463ffffffff1660e01b8152600401610bb493929190611c63565b600060405180830381600087803b158015610bce57600080fd5b505af1158015610be2573d6000803e3d6000fd5b505050503373ffffffffffffffffffffffffffffffffffffffff168160040160009054906101000a900473ffffffffffffffffffffffffffffffffffffffff1673ffffffffffffffffffffffffffffffffffffffff168260010160009054906101000a900473ffffffffffffffffffffffffffffffffffffffff1673ffffffffffffffffffffffffffffffffffffffff167f8b4c9c8a607d67b321582dd8461041b1dc2ceeca70c8b7f37f8e02095cf2e76d8585600201548660030154604051610cae93929190611d00565b60405180910390a450600160008190555050565b7f000000000000000000000000000000000000000000000000000000000000000081565b60015481565b60606000825190506000808267ffffffffffffffff811115610d1157610d10611717565b5b604051908082528060200260200182016040528015610d4a57816020015b610d37611510565b815260200190600190039081610d2f5790505b50905060005b83811015610ed757600060026000888481518110610d7157610d70611d60565b5b602002602001015181526020019081526020016000206000015490506000600260008381526020019081526020016000209050806040518060c0016040529081600082015481526020016001820160009054906101000a900473ffffffffffffffffffffffffffffffffffffffff1673ffffffffffffffffffffffffffffffffffffffff1673ffffffffffffffffffffffffffffffffffffffff16815260200160028201548152602001600382015481526020016004820160009054906101000a900473ffffffffffffffffffffffffffffffffffffffff1673ffffffffffffffffffffffffffffffffffffffff1673ffffffffffffffffffffffffffffffffffffffff1681526020016004820160149054906101000a900460ff161515151581525050848681518110610ea857610ea7611d60565b5b6020026020010181905250600185610ec09190611d8f565b945050508080610ecf90611de5565b915050610d50565b50809350505050919050565b7f000000000000000000000000000000000000000000000000000000000000000081565b6000816000101580610f8657508273ffffffffffffffffffffffffffffffffffffffff16639f181b5e6040518163ffffffff1660e01b8152600401602060405180830381865afa158015610f5f573d6000803e3d6000fd5b505050506040513d601f19601f82011682018060405250810190610f839190611e42565b82115b15610fbd576040517f4494362200000000000000000000000000000000000000000000000000000000815260040160405180910390fd5b3073ffffffffffffffffffffffffffffffffffffffff168373ffffffffffffffffffffffffffffffffffffffff16636352211e846040518263ffffffff1660e01b815260040161100d91906116aa565b602060405180830381865afa15801561102a573d6000803e3d6000fd5b505050506040513d601f19601f8201168201806040525081019061104e9190611e9b565b73ffffffffffffffffffffffffffffffffffffffff161461109b576040517fc240eb3600000000000000000000000000000000000000000000000000000000815260040160405180910390fd5b6001905092915050565b60026020528060005260406000206000915090508060000154908060010160009054906101000a900473ffffffffffffffffffffffffffffffffffffffff16908060020154908060030154908060040160009054906101000a900473ffffffffffffffffffffffffffffffffffffffff16908060040160149054906101000a900460ff16905086565b600060647f0000000000000000000000000000000000000000000000000000000000000000606461115f9190611d8f565b60026000858152602001908152602001600020600301546111809190611ec8565b61118a9190611f51565b9050919050565b6002600054036111d6576040517f08c379a00000000000000000000000000000000000000000000000000000000081526004016111cd90611bd1565b60405180910390fd5b6002600081905550600115158373ffffffffffffffffffffffffffffffffffffffff1663c1849cde846040518263ffffffff1660e01b815260040161121b91906116aa565b602060405180830381865afa158015611238573d6000803e3d6000fd5b505050506040513d601f19601f8201168201806040525081019061125c9190611fae565b151503611295576040517feb5349b500000000000000000000000000000000000000000000000000000000815260040160405180910390fd5b600081116112cf576040517fd8a6778b00000000000000000000000000000000000000000000000000000000815260040160405180910390fd5b600160008154809291906112e290611de5565b91905055508273ffffffffffffffffffffffffffffffffffffffff166323b872dd3330856040518463ffffffff1660e01b815260040161132493929190611c63565b600060405180830381600087803b15801561133e57600080fd5b505af1158015611352573d6000803e3d6000fd5b505050506040518060c0016040528060015481526020018473ffffffffffffffffffffffffffffffffffffffff1681526020018381526020018281526020013373ffffffffffffffffffffffffffffffffffffffff168152602001600015158152506002600060015481526020019081526020016000206000820151816000015560208201518160010160006101000a81548173ffffffffffffffffffffffffffffffffffffffff021916908373ffffffffffffffffffffffffffffffffffffffff160217905550604082015181600201556060820151816003015560808201518160040160006101000a81548173ffffffffffffffffffffffffffffffffffffffff021916908373ffffffffffffffffffffffffffffffffffffffff16021790555060a08201518160040160146101000a81548160ff0219169083151502179055509050503373ffffffffffffffffffffffffffffffffffffffff168373ffffffffffffffffffffffffffffffffffffffff167f655a0cf9c8db81512be9a76dc1c5ae5380b8816ce6ad659cd61b715e2999d59a60015485856040516114fb93929190611d00565b60405180910390a36001600081905550505050565b6040518060c0016040528060008152602001600073ffffffffffffffffffffffffffffffffffffffff1681526020016000815260200160008152602001600073ffffffffffffffffffffffffffffffffffffffff1681526020016000151581525090565b6000604051905090565b600080fd5b600080fd5b600073ffffffffffffffffffffffffffffffffffffffff82169050919050565b60006115b382611588565b9050919050565b60006115c5826115a8565b9050919050565b6115d5816115ba565b81146115e057600080fd5b50565b6000813590506115f2816115cc565b92915050565b6000819050919050565b61160b816115f8565b811461161657600080fd5b50565b60008135905061162881611602565b92915050565b600080604083850312156116455761164461157e565b5b6000611653858286016115e3565b925050602061166485828601611619565b9150509250929050565b6000602082840312156116845761168361157e565b5b600061169284828501611619565b91505092915050565b6116a4816115f8565b82525050565b60006020820190506116bf600083018461169b565b92915050565b60006116d082611588565b9050919050565b6116e0816116c5565b82525050565b60006020820190506116fb60008301846116d7565b92915050565b600080fd5b6000601f19601f8301169050919050565b7f4e487b7100000000000000000000000000000000000000000000000000000000600052604160045260246000fd5b61174f82611706565b810181811067ffffffffffffffff8211171561176e5761176d611717565b5b80604052505050565b6000611781611574565b905061178d8282611746565b919050565b600067ffffffffffffffff8211156117ad576117ac611717565b5b602082029050602081019050919050565b600080fd5b60006117d66117d184611792565b611777565b905080838252602082019050602084028301858111156117f9576117f86117be565b5b835b81811015611822578061180e8882611619565b8452602084019350506020810190506117fb565b5050509392505050565b600082601f83011261184157611840611701565b5b81356118518482602086016117c3565b91505092915050565b6000602082840312156118705761186f61157e565b5b600082013567ffffffffffffffff81111561188e5761188d611583565b5b61189a8482850161182c565b91505092915050565b600081519050919050565b600082825260208201905092915050565b6000819050602082019050919050565b6118d8816115f8565b82525050565b6000819050919050565b60006119036118fe6118f984611588565b6118de565b611588565b9050919050565b6000611915826118e8565b9050919050565b60006119278261190a565b9050919050565b6119378161191c565b82525050565b611946816116c5565b82525050565b60008115159050919050565b6119618161194c565b82525050565b60c08201600082015161197d60008501826118cf565b506020820151611990602085018261192e565b5060408201516119a360408501826118cf565b5060608201516119b660608501826118cf565b5060808201516119c9608085018261193d565b5060a08201516119dc60a0850182611958565b50505050565b60006119ee8383611967565b60c08301905092915050565b6000602082019050919050565b6000611a12826118a3565b611a1c81856118ae565b9350611a27836118bf565b8060005b83811015611a58578151611a3f88826119e2565b9750611a4a836119fa565b925050600181019050611a2b565b5085935050505092915050565b60006020820190508181036000830152611a7f8184611a07565b905092915050565b611a908161194c565b82525050565b6000602082019050611aab6000830184611a87565b92915050565b611aba8161191c565b82525050565b600060c082019050611ad5600083018961169b565b611ae26020830188611ab1565b611aef604083018761169b565b611afc606083018661169b565b611b0960808301856116d7565b611b1660a0830184611a87565b979650505050505050565b600080600060608486031215611b3a57611b3961157e565b5b6000611b48868287016115e3565b9350506020611b5986828701611619565b9250506040611b6a86828701611619565b9150509250925092565b600082825260208201905092915050565b7f5265656e7472616e637947756172643a207265656e7472616e742063616c6c00600082015250565b6000611bbb601f83611b74565b9150611bc682611b85565b602082019050919050565b60006020820190508181036000830152611bea81611bae565b9050919050565b7f4e487b7100000000000000000000000000000000000000000000000000000000600052601160045260246000fd5b6000611c2b826115f8565b9150611c36836115f8565b925082821015611c4957611c48611bf1565b5b828203905092915050565b611c5d816115a8565b82525050565b6000606082019050611c786000830186611c54565b611c856020830185611c54565b611c92604083018461169b565b949350505050565b6000611ca58261190a565b9050919050565b611cb581611c9a565b82525050565b6000608082019050611cd06000830187611cac565b611cdd6020830186611c54565b611cea604083018561169b565b611cf7606083018461169b565b95945050505050565b6000606082019050611d15600083018661169b565b611d22602083018561169b565b611d2f604083018461169b565b949350505050565b6000611d42826115f8565b915060008203611d5557611d54611bf1565b5b600182039050919050565b7f4e487b7100000000000000000000000000000000000000000000000000000000600052603260045260246000fd5b6000611d9a826115f8565b9150611da5836115f8565b9250827fffffffffffffffffffffffffffffffffffffffffffffffffffffffffffffffff03821115611dda57611dd9611bf1565b5b828201905092915050565b6000611df0826115f8565b91507fffffffffffffffffffffffffffffffffffffffffffffffffffffffffffffffff8203611e2257611e21611bf1565b5b600182019050919050565b600081519050611e3c81611602565b92915050565b600060208284031215611e5857611e5761157e565b5b6000611e6684828501611e2d565b91505092915050565b611e78816115a8565b8114611e8357600080fd5b50565b600081519050611e9581611e6f565b92915050565b600060208284031215611eb157611eb061157e565b5b6000611ebf84828501611e86565b91505092915050565b6000611ed3826115f8565b9150611ede836115f8565b9250817fffffffffffffffffffffffffffffffffffffffffffffffffffffffffffffffff0483118215151615611f1757611f16611bf1565b5b828202905092915050565b7f4e487b7100000000000000000000000000000000000000000000000000000000600052601260045260246000fd5b6000611f5c826115f8565b9150611f67836115f8565b925082611f7757611f76611f22565b5b828204905092915050565b611f8b8161194c565b8114611f9657600080fd5b50565b600081519050611fa881611f82565b92915050565b600060208284031215611fc457611fc361157e565b5b6000611fd284828501611f99565b9150509291505056fea2646970667358221220c6597d6e6887e152e8e34e2844a7875e7846f126132f90bc01ea7c981ea9be9064736f6c634300080d0033",
  "immutableReferences": {
    "1773": [
      {
        "length": 32,
        "start": 1145
      },
      {
        "length": 32,
        "start": 3268
      }
    ],
    "1775": [
      {
        "length": 32,
        "start": 3813
      },
      {
        "length": 32,
        "start": 4404
      }
    ]
  },
  "source": "// SPDX-License-Identifier: MIT\r\npragma solidity ^0.8.4;\r\n\r\nimport \"@openzeppelin/contracts/token/ERC721/IERC721.sol\";\r\nimport \"./NFT.sol\";\r\n\r\n\r\nimport \"@openzeppelin/contracts/security/ReentrancyGuard.sol\";\r\n\r\n\r\nerror AlreadyTokenExist();\r\nerror PriceEqualOrLessThenZero();\r\nerror NotEnoughEtherCoverItemPrice();\r\nerror ItemSoldOut();\r\nerror TokenNotinMarketplace();\r\nerror NotTokneOwner();\r\nerror ItemNotExist();\r\n\r\ncontract Marketplace is ReentrancyGuard {\r\n\r\n  address payable public immutable feeAccount;\r\n  \r\n  uint public immutable feePercent;\r\n\r\n  uint public itemCount;\r\n\r\n\r\n\r\n  struct Item {\r\n    uint itemId;\r\n    IERC721 nft;\r\n    uint tokenId;\r\n    uint price;\r\n    address payable seller;\r\n    bool sold;\r\n  }\r\n\r\n  event Offered (\r\n    uint itemId,\r\n    address indexed nft,\r\n    uint tokenId,\r\n    uint price,\r\n    address indexed seller\r\n  );\r\n\r\n  event Bought (\r\n    uint itemId,\r\n    address indexed nft,\r\n    uint tokenId,\r\n    uint price,\r\n    address indexed seller,\r\n    address indexed buyer\r\n  );\r\n\r\nmapping(uint => Item) public items;\r\n\r\nconstructor(uint _feePercent) {\r\n  feeAccount = payable(msg.sender);\r\n  feePercent = _feePercent;\r\n}\r\n\r\n\r\nfunction makeItem(NFT _nft, uint _tokenId, uint _price) external nonReentrant {\r\n    if(_nft.isRealization(_tokenId) == true) revert AlreadyTokenExist();\r\n    if(_price <= 0) revert PriceEqualOrLessThenZero();\r\n\r\n    itemCount ++;\r\n\r\n    _nft.transferFrom(msg.sender, address(this), _tokenId);\r\n\r\n    items[itemCount] = Item (\r\n      itemCount,\r\n      _nft,\r\n      _tokenId,\r\n      _price,\r\n      payable(msg.sender),\r\n      false\r\n    );\r\n\r\n    emit Offered(itemCount, address(_nft), _tokenId, _price, msg.sender);\r\n  }\r\n\r\n\r\n  function purchaseItem(NFT _nft, uint _itemId) external payable nonReentrant {\r\n\r\n    uint _totalPrice = getTotalPrice(_itemId);\r\n\r\n    Item storage item = items[_itemId];\r\n\r\n    if(_itemId <= 0 || _itemId > itemCount) revert ItemNotExist();\r\n    if(msg.value < _totalPrice) revert NotEnoughEtherCoverItemPrice();\r\n    if(item.sold == true) revert ItemSoldOut();\r\n\r\n    item.seller.transfer(item.price);\r\n\r\n    feeAccount.transfer(_totalPrice - item.price);\r\n\r\n    item.sold = true;\r\n\r\n    item.nft.transferFrom(address(this), msg.sender, item.tokenId);\r\n\r\n    _nft.addTokenReceipt(item.seller, msg.sender, item.price, item.tokenId);\r\n\r\n\r\n    emit Bought(\r\n      _itemId,\r\n      address(item.nft),\r\n      item.tokenId,\r\n      item.price,\r\n      item.seller,\r\n      msg.sender\r\n    );\r\n  }\r\n\r\n  function getTotalPrice(uint _itemId) public view returns(uint) {\r\n    return items[_itemId].price * (100 + feePercent) / 100;\r\n  }\r\n\r\n  function likeViewBatch(uint256[] memory ids) public view returns(Item[] memory) {\r\n    uint LikeItemsCount = ids.length;\r\n    uint currentIndex = 0;\r\n    Item[] memory likeItems = new Item[](LikeItemsCount);\r\n\r\n\r\n    for(uint i = 0; i < LikeItemsCount; i++) {\r\n      uint currentId = items[ids[i]].itemId;\r\n      Item storage currentItem = items[currentId];\r\n      likeItems[currentIndex] = currentItem;\r\n      currentIndex += 1;\r\n    }\r\n    return likeItems;\r\n  }\r\n\r\n  function nftInMarket(NFT _nft, uint _tokenId) public view returns(bool) {\r\n    if (0 >= _tokenId || _tokenId > _nft.tokenCount()) revert TokenNotExist();\r\n    if (address(_nft.ownerOf(_tokenId)) != address(this)) revert TokenNotinMarketplace();\r\n    return true;\r\n  }\r\n\r\n  function cancelItem(uint _itemId) external nonReentrant {\r\n    Item storage item = items[_itemId];\r\n\r\n    if (msg.sender != item.seller) revert NotTokneOwner();\r\n    if (_itemId <= 0 && _itemId > itemCount) revert ItemNotExist();\r\n    if (item.sold == true) revert ItemSoldOut();\r\n\r\n    item.sold = true;\r\n\r\n    item.nft.transferFrom(address(this), msg.sender, item.tokenId);\r\n\r\n    emit Bought(\r\n      _itemId,\r\n      address(item.nft),\r\n      item.tokenId,\r\n      item.price,\r\n      item.seller,\r\n      msg.sender\r\n    );\r\n\r\n  }\r\n\r\n  \r\n  function lastValidTransaction(uint _tokenId) public view returns(uint) {\r\n    uint curr = itemCount;\r\n    Item memory ownership = items[curr];\r\n    if(ownership.tokenId == _tokenId) {\r\n      if(ownership.sold == false) {\r\n        return ownership.itemId;\r\n      }\r\n    } while(curr > 0) {\r\n      curr--;\r\n      ownership = items[curr];\r\n      if(ownership.tokenId == _tokenId){\r\n        if(ownership.sold == false) {\r\n          return ownership.itemId;\r\n        }\r\n      }\r\n    }\r\n    return 0;\r\n  }\r\n}\r\n  ",
  "sourcePath": "C:\\Users\\SSAFY\\Desktop\\S06P22E206\\frontend\\src\\contracts\\Marketplace.sol",
  "compiler": {
    "name": "solc",
    "version": "0.8.13+commit.abaa5c0e.Emscripten.clang"
  },
  "schemaVersion": "3.4.6",
  "updatedAt": "2022-04-07T16:50:54.361Z",
  "networkType": "ethereum",
  "devdoc": {
    "kind": "dev",
    "methods": {},
    "version": 1
  },
  "userdoc": {
    "kind": "user",
    "methods": {},
    "version": 1
  }
}