{
  "contractName": "NFT",
  "abi": [
    {
      "inputs": [],
      "stateMutability": "nonpayable",
      "type": "constructor"
    },
    {
      "inputs": [],
      "name": "NotTokenOwner",
      "type": "error"
    },
    {
      "inputs": [],
      "name": "TokenAlreadyRealization",
      "type": "error"
    },
    {
      "inputs": [],
      "name": "TokenInMarket",
      "type": "error"
    },
    {
      "inputs": [],
      "name": "TokenNotExist",
      "type": "error"
    },
    {
      "anonymous": false,
      "inputs": [
        {
          "indexed": true,
          "internalType": "address",
          "name": "owner",
          "type": "address"
        },
        {
          "indexed": true,
          "internalType": "address",
          "name": "approved",
          "type": "address"
        },
        {
          "indexed": true,
          "internalType": "uint256",
          "name": "tokenId",
          "type": "uint256"
        }
      ],
      "name": "Approval",
      "type": "event"
    },
    {
      "anonymous": false,
      "inputs": [
        {
          "indexed": true,
          "internalType": "address",
          "name": "owner",
          "type": "address"
        },
        {
          "indexed": true,
          "internalType": "address",
          "name": "operator",
          "type": "address"
        },
        {
          "indexed": false,
          "internalType": "bool",
          "name": "approved",
          "type": "bool"
        }
      ],
      "name": "ApprovalForAll",
      "type": "event"
    },
    {
      "anonymous": false,
      "inputs": [
        {
          "indexed": true,
          "internalType": "address",
          "name": "from",
          "type": "address"
        },
        {
          "indexed": true,
          "internalType": "address",
          "name": "to",
          "type": "address"
        },
        {
          "indexed": true,
          "internalType": "uint256",
          "name": "tokenId",
          "type": "uint256"
        }
      ],
      "name": "Transfer",
      "type": "event"
    },
    {
      "inputs": [
        {
          "internalType": "address",
          "name": "to",
          "type": "address"
        },
        {
          "internalType": "uint256",
          "name": "tokenId",
          "type": "uint256"
        }
      ],
      "name": "approve",
      "outputs": [],
      "stateMutability": "nonpayable",
      "type": "function"
    },
    {
      "inputs": [
        {
          "internalType": "address",
          "name": "owner",
          "type": "address"
        }
      ],
      "name": "balanceOf",
      "outputs": [
        {
          "internalType": "uint256",
          "name": "",
          "type": "uint256"
        }
      ],
      "stateMutability": "view",
      "type": "function",
      "constant": true
    },
    {
      "inputs": [
        {
          "internalType": "uint256",
          "name": "tokenId",
          "type": "uint256"
        }
      ],
      "name": "getApproved",
      "outputs": [
        {
          "internalType": "address",
          "name": "",
          "type": "address"
        }
      ],
      "stateMutability": "view",
      "type": "function",
      "constant": true
    },
    {
      "inputs": [
        {
          "internalType": "address",
          "name": "owner",
          "type": "address"
        },
        {
          "internalType": "address",
          "name": "operator",
          "type": "address"
        }
      ],
      "name": "isApprovedForAll",
      "outputs": [
        {
          "internalType": "bool",
          "name": "",
          "type": "bool"
        }
      ],
      "stateMutability": "view",
      "type": "function",
      "constant": true
    },
    {
      "inputs": [],
      "name": "name",
      "outputs": [
        {
          "internalType": "string",
          "name": "",
          "type": "string"
        }
      ],
      "stateMutability": "view",
      "type": "function",
      "constant": true
    },
    {
      "inputs": [
        {
          "internalType": "uint256",
          "name": "tokenId",
          "type": "uint256"
        }
      ],
      "name": "ownerOf",
      "outputs": [
        {
          "internalType": "address",
          "name": "",
          "type": "address"
        }
      ],
      "stateMutability": "view",
      "type": "function",
      "constant": true
    },
    {
      "inputs": [
        {
          "internalType": "address",
          "name": "from",
          "type": "address"
        },
        {
          "internalType": "address",
          "name": "to",
          "type": "address"
        },
        {
          "internalType": "uint256",
          "name": "tokenId",
          "type": "uint256"
        }
      ],
      "name": "safeTransferFrom",
      "outputs": [],
      "stateMutability": "nonpayable",
      "type": "function"
    },
    {
      "inputs": [
        {
          "internalType": "address",
          "name": "from",
          "type": "address"
        },
        {
          "internalType": "address",
          "name": "to",
          "type": "address"
        },
        {
          "internalType": "uint256",
          "name": "tokenId",
          "type": "uint256"
        },
        {
          "internalType": "bytes",
          "name": "_data",
          "type": "bytes"
        }
      ],
      "name": "safeTransferFrom",
      "outputs": [],
      "stateMutability": "nonpayable",
      "type": "function"
    },
    {
      "inputs": [
        {
          "internalType": "address",
          "name": "operator",
          "type": "address"
        },
        {
          "internalType": "bool",
          "name": "approved",
          "type": "bool"
        }
      ],
      "name": "setApprovalForAll",
      "outputs": [],
      "stateMutability": "nonpayable",
      "type": "function"
    },
    {
      "inputs": [
        {
          "internalType": "bytes4",
          "name": "interfaceId",
          "type": "bytes4"
        }
      ],
      "name": "supportsInterface",
      "outputs": [
        {
          "internalType": "bool",
          "name": "",
          "type": "bool"
        }
      ],
      "stateMutability": "view",
      "type": "function",
      "constant": true
    },
    {
      "inputs": [],
      "name": "symbol",
      "outputs": [
        {
          "internalType": "string",
          "name": "",
          "type": "string"
        }
      ],
      "stateMutability": "view",
      "type": "function",
      "constant": true
    },
    {
      "inputs": [],
      "name": "tokenCount",
      "outputs": [
        {
          "internalType": "uint256",
          "name": "",
          "type": "uint256"
        }
      ],
      "stateMutability": "view",
      "type": "function",
      "constant": true
    },
    {
      "inputs": [
        {
          "internalType": "uint256",
          "name": "tokenId",
          "type": "uint256"
        }
      ],
      "name": "tokenURI",
      "outputs": [
        {
          "internalType": "string",
          "name": "",
          "type": "string"
        }
      ],
      "stateMutability": "view",
      "type": "function",
      "constant": true
    },
    {
      "inputs": [
        {
          "internalType": "address",
          "name": "from",
          "type": "address"
        },
        {
          "internalType": "address",
          "name": "to",
          "type": "address"
        },
        {
          "internalType": "uint256",
          "name": "tokenId",
          "type": "uint256"
        }
      ],
      "name": "transferFrom",
      "outputs": [],
      "stateMutability": "nonpayable",
      "type": "function"
    },
    {
      "inputs": [
        {
          "internalType": "string",
          "name": "_tokenURI",
          "type": "string"
        }
      ],
      "name": "mint",
      "outputs": [
        {
          "internalType": "uint256",
          "name": "",
          "type": "uint256"
        }
      ],
      "stateMutability": "nonpayable",
      "type": "function"
    },
    {
      "inputs": [
        {
          "internalType": "uint256",
          "name": "_tokenId",
          "type": "uint256"
        }
      ],
      "name": "TokenTracking",
      "outputs": [
        {
          "components": [
            {
              "internalType": "address",
              "name": "seller",
              "type": "address"
            },
            {
              "internalType": "address",
              "name": "buyer",
              "type": "address"
            },
            {
              "internalType": "uint256",
              "name": "tokenId",
              "type": "uint256"
            },
            {
              "internalType": "uint256",
              "name": "price",
              "type": "uint256"
            },
            {
              "internalType": "uint256",
              "name": "transacTimeStamp",
              "type": "uint256"
            },
            {
              "internalType": "bool",
              "name": "realized",
              "type": "bool"
            }
          ],
          "internalType": "struct NFT.TokenReciept[]",
          "name": "",
          "type": "tuple[]"
        }
      ],
      "stateMutability": "view",
      "type": "function",
      "constant": true
    },
    {
      "inputs": [
        {
          "internalType": "address",
          "name": "_seller",
          "type": "address"
        },
        {
          "internalType": "address",
          "name": "_buyer",
          "type": "address"
        },
        {
          "internalType": "uint256",
          "name": "_price",
          "type": "uint256"
        },
        {
          "internalType": "uint256",
          "name": "_tokenId",
          "type": "uint256"
        }
      ],
      "name": "addTokenReceipt",
      "outputs": [],
      "stateMutability": "nonpayable",
      "type": "function"
    },
    {
      "inputs": [
        {
          "internalType": "uint256",
          "name": "_tokenId",
          "type": "uint256"
        }
      ],
      "name": "isRealization",
      "outputs": [
        {
          "internalType": "bool",
          "name": "",
          "type": "bool"
        }
      ],
      "stateMutability": "view",
      "type": "function",
      "constant": true
    },
    {
      "inputs": [
        {
          "internalType": "address",
          "name": "marketplaceAddr",
          "type": "address"
        },
        {
          "internalType": "uint256",
          "name": "_tokenId",
          "type": "uint256"
        }
      ],
      "name": "Realization",
      "outputs": [],
      "stateMutability": "nonpayable",
      "type": "function"
    }
  ],
  "bytecode": "0x60806040523480156200001157600080fd5b506040518060400160405280600881526020017f44417070204e46540000000000000000000000000000000000000000000000008152506040518060400160405280600481526020017f4441505000000000000000000000000000000000000000000000000000000000815250816000908051906020019062000096929190620000b8565b508060019080519060200190620000af929190620000b8565b505050620001cc565b828054620000c69062000197565b90600052602060002090601f016020900481019282620000ea576000855562000136565b82601f106200010557805160ff191683800117855562000136565b8280016001018555821562000136579182015b828111156200013557825182559160200191906001019062000118565b5b50905062000145919062000149565b5090565b5b80821115620001645760008160009055506001016200014a565b5090565b7f4e487b7100000000000000000000000000000000000000000000000000000000600052602260045260246000fd5b60006002820490506001821680620001b057607f821691505b602082108103620001c657620001c562000168565b5b50919050565b61339980620001dc6000396000f3fe608060405234801561001057600080fd5b50600436106101215760003560e01c806375ffc827116100ad578063b88d4fde11610071578063b88d4fde14610318578063c1849cde14610334578063c87b56dd14610364578063d85d3d2714610394578063e985e9c5146103c457610121565b806375ffc8271461027457806383aa44de146102a457806395d89b41146102c05780639f181b5e146102de578063a22cb465146102fc57610121565b8063122bcae6116100f4578063122bcae6146101c057806323b872dd146101dc57806342842e0e146101f85780636352211e1461021457806370a082311461024457610121565b806301ffc9a71461012657806306fdde0314610156578063081812fc14610174578063095ea7b3146101a4575b600080fd5b610140600480360381019061013b9190611f30565b6103f4565b60405161014d9190611f78565b60405180910390f35b61015e6104d6565b60405161016b919061202c565b60405180910390f35b61018e60048036038101906101899190612084565b610568565b60405161019b91906120f2565b60405180910390f35b6101be60048036038101906101b99190612139565b6105ed565b005b6101da60048036038101906101d59190612139565b610704565b005b6101f660048036038101906101f19190612179565b610857565b005b610212600480360381019061020d9190612179565b6108b7565b005b61022e60048036038101906102299190612084565b6108d7565b60405161023b91906120f2565b60405180910390f35b61025e600480360381019061025991906121cc565b610988565b60405161026b9190612208565b60405180910390f35b61028e60048036038101906102899190612084565b610a3f565b60405161029b919061237a565b60405180910390f35b6102be60048036038101906102b9919061239c565b610be4565b005b6102c8610d5d565b6040516102d5919061202c565b60405180910390f35b6102e6610def565b6040516102f39190612208565b60405180910390f35b6103166004803603810190610311919061242f565b610df5565b005b610332600480360381019061032d91906125a4565b610e0b565b005b61034e60048036038101906103499190612084565b610e6d565b60405161035b9190611f78565b60405180910390f35b61037e60048036038101906103799190612084565b610e9a565b60405161038b919061202c565b60405180910390f35b6103ae60048036038101906103a991906126c8565b610feb565b6040516103bb9190612208565b60405180910390f35b6103de60048036038101906103d99190612711565b611052565b6040516103eb9190611f78565b60405180910390f35b60007f80ac58cd000000000000000000000000000000000000000000000000000000007bffffffffffffffffffffffffffffffffffffffffffffffffffffffff1916827bffffffffffffffffffffffffffffffffffffffffffffffffffffffff191614806104bf57507f5b5e139f000000000000000000000000000000000000000000000000000000007bffffffffffffffffffffffffffffffffffffffffffffffffffffffff1916827bffffffffffffffffffffffffffffffffffffffffffffffffffffffff1916145b806104cf57506104ce826110e6565b5b9050919050565b6060600080546104e590612780565b80601f016020809104026020016040519081016040528092919081815260200182805461051190612780565b801561055e5780601f106105335761010080835404028352916020019161055e565b820191906000526020600020905b81548152906001019060200180831161054157829003601f168201915b5050505050905090565b600061057382611150565b6105b2576040517f08c379a00000000000000000000000000000000000000000000000000000000081526004016105a990612823565b60405180910390fd5b6004600083815260200190815260200160002060009054906101000a900473ffffffffffffffffffffffffffffffffffffffff169050919050565b60006105f8826108d7565b90508073ffffffffffffffffffffffffffffffffffffffff168373ffffffffffffffffffffffffffffffffffffffff1603610668576040517f08c379a000000000000000000000000000000000000000000000000000000000815260040161065f906128b5565b60405180910390fd5b8073ffffffffffffffffffffffffffffffffffffffff166106876111bc565b73ffffffffffffffffffffffffffffffffffffffff1614806106b657506106b5816106b06111bc565b611052565b5b6106f5576040517f08c379a00000000000000000000000000000000000000000000000000000000081526004016106ec90612947565b60405180910390fd5b6106ff83836111c4565b505050565b3373ffffffffffffffffffffffffffffffffffffffff16610724826108d7565b73ffffffffffffffffffffffffffffffffffffffff1614610771576040517f59dc379f00000000000000000000000000000000000000000000000000000000815260040160405180910390fd5b61077a816108d7565b73ffffffffffffffffffffffffffffffffffffffff168273ffffffffffffffffffffffffffffffffffffffff16036107de576040517fb47ab1a800000000000000000000000000000000000000000000000000000000815260040160405180910390fd5b600115156107eb82610e6d565b151503610824576040517fc1130b3200000000000000000000000000000000000000000000000000000000815260040160405180910390fd5b60016009600083815260200190815260200160002060000160006101000a81548160ff0219169083151502179055505050565b6108686108626111bc565b8261127d565b6108a7576040517f08c379a000000000000000000000000000000000000000000000000000000000815260040161089e906129d9565b60405180910390fd5b6108b283838361135b565b505050565b6108d283838360405180602001604052806000815250610e0b565b505050565b6000806002600084815260200190815260200160002060009054906101000a900473ffffffffffffffffffffffffffffffffffffffff169050600073ffffffffffffffffffffffffffffffffffffffff168173ffffffffffffffffffffffffffffffffffffffff160361097f576040517f08c379a000000000000000000000000000000000000000000000000000000000815260040161097690612a6b565b60405180910390fd5b80915050919050565b60008073ffffffffffffffffffffffffffffffffffffffff168273ffffffffffffffffffffffffffffffffffffffff16036109f8576040517f08c379a00000000000000000000000000000000000000000000000000000000081526004016109ef90612afd565b60405180910390fd5b600360008373ffffffffffffffffffffffffffffffffffffffff1673ffffffffffffffffffffffffffffffffffffffff168152602001908152602001600020549050919050565b6060816000101580610a52575060075482115b15610a89576040517f4494362200000000000000000000000000000000000000000000000000000000815260040160405180910390fd5b600060086000848152602001908152602001600020905080805480602002602001604051908101604052809291908181526020016000905b82821015610bd857838290600052602060002090600602016040518060c00160405290816000820160009054906101000a900473ffffffffffffffffffffffffffffffffffffffff1673ffffffffffffffffffffffffffffffffffffffff1673ffffffffffffffffffffffffffffffffffffffff1681526020016001820160009054906101000a900473ffffffffffffffffffffffffffffffffffffffff1673ffffffffffffffffffffffffffffffffffffffff1673ffffffffffffffffffffffffffffffffffffffff1681526020016002820154815260200160038201548152602001600482015481526020016005820160009054906101000a900460ff16151515158152505081526020019060010190610ac1565b50505050915050919050565b6000600860008381526020019081526020016000209050806040518060c001604052808773ffffffffffffffffffffffffffffffffffffffff1681526020018673ffffffffffffffffffffffffffffffffffffffff168152602001848152602001858152602001428152602001610c5a85610e6d565b1515815250908060018154018082558091505060019003906000526020600020906006020160009091909190915060008201518160000160006101000a81548173ffffffffffffffffffffffffffffffffffffffff021916908373ffffffffffffffffffffffffffffffffffffffff16021790555060208201518160010160006101000a81548173ffffffffffffffffffffffffffffffffffffffff021916908373ffffffffffffffffffffffffffffffffffffffff16021790555060408201518160020155606082015181600301556080820151816004015560a08201518160050160006101000a81548160ff02191690831515021790555050505050505050565b606060018054610d6c90612780565b80601f0160208091040260200160405190810160405280929190818152602001828054610d9890612780565b8015610de55780601f10610dba57610100808354040283529160200191610de5565b820191906000526020600020905b815481529060010190602001808311610dc857829003601f168201915b5050505050905090565b60075481565b610e07610e006111bc565b83836115c1565b5050565b610e1c610e166111bc565b8361127d565b610e5b576040517f08c379a0000000000000000000000000000000000000000000000000000000008152600401610e52906129d9565b60405180910390fd5b610e678484848461172d565b50505050565b60006009600083815260200190815260200160002060000160009054906101000a900460ff169050919050565b6060610ea582611150565b610ee4576040517f08c379a0000000000000000000000000000000000000000000000000000000008152600401610edb90612b8f565b60405180910390fd5b6000600660008481526020019081526020016000208054610f0490612780565b80601f0160208091040260200160405190810160405280929190818152602001828054610f3090612780565b8015610f7d5780601f10610f5257610100808354040283529160200191610f7d565b820191906000526020600020905b815481529060010190602001808311610f6057829003601f168201915b505050505090506000610f8e611789565b90506000815103610fa3578192505050610fe6565b600082511115610fd8578082604051602001610fc0929190612beb565b60405160208183030381529060405292505050610fe6565b610fe1846117a0565b925050505b919050565b600060076000815480929190600101919050555061100b33600754611847565b600060096000600754815260200190815260200160002060000160006101000a81548160ff02191690831515021790555061104860075483611865565b6007549050919050565b6000600560008473ffffffffffffffffffffffffffffffffffffffff1673ffffffffffffffffffffffffffffffffffffffff16815260200190815260200160002060008373ffffffffffffffffffffffffffffffffffffffff1673ffffffffffffffffffffffffffffffffffffffff16815260200190815260200160002060009054906101000a900460ff16905092915050565b60007f01ffc9a7000000000000000000000000000000000000000000000000000000007bffffffffffffffffffffffffffffffffffffffffffffffffffffffff1916827bffffffffffffffffffffffffffffffffffffffffffffffffffffffff1916149050919050565b60008073ffffffffffffffffffffffffffffffffffffffff166002600084815260200190815260200160002060009054906101000a900473ffffffffffffffffffffffffffffffffffffffff1673ffffffffffffffffffffffffffffffffffffffff1614159050919050565b600033905090565b816004600083815260200190815260200160002060006101000a81548173ffffffffffffffffffffffffffffffffffffffff021916908373ffffffffffffffffffffffffffffffffffffffff160217905550808273ffffffffffffffffffffffffffffffffffffffff16611237836108d7565b73ffffffffffffffffffffffffffffffffffffffff167f8c5be1e5ebec7d5bd14f71427d1e84f3dd0314c0f7b2291e5b200ac8c7c3b92560405160405180910390a45050565b600061128882611150565b6112c7576040517f08c379a00000000000000000000000000000000000000000000000000000000081526004016112be90612c81565b60405180910390fd5b60006112d2836108d7565b90508073ffffffffffffffffffffffffffffffffffffffff168473ffffffffffffffffffffffffffffffffffffffff16148061134157508373ffffffffffffffffffffffffffffffffffffffff1661132984610568565b73ffffffffffffffffffffffffffffffffffffffff16145b8061135257506113518185611052565b5b91505092915050565b8273ffffffffffffffffffffffffffffffffffffffff1661137b826108d7565b73ffffffffffffffffffffffffffffffffffffffff16146113d1576040517f08c379a00000000000000000000000000000000000000000000000000000000081526004016113c890612d13565b60405180910390fd5b600073ffffffffffffffffffffffffffffffffffffffff168273ffffffffffffffffffffffffffffffffffffffff1603611440576040517f08c379a000000000000000000000000000000000000000000000000000000000815260040161143790612da5565b60405180910390fd5b61144b8383836118d9565b6114566000826111c4565b6001600360008573ffffffffffffffffffffffffffffffffffffffff1673ffffffffffffffffffffffffffffffffffffffff16815260200190815260200160002060008282546114a69190612df4565b925050819055506001600360008473ffffffffffffffffffffffffffffffffffffffff1673ffffffffffffffffffffffffffffffffffffffff16815260200190815260200160002060008282546114fd9190612e28565b92505081905550816002600083815260200190815260200160002060006101000a81548173ffffffffffffffffffffffffffffffffffffffff021916908373ffffffffffffffffffffffffffffffffffffffff160217905550808273ffffffffffffffffffffffffffffffffffffffff168473ffffffffffffffffffffffffffffffffffffffff167fddf252ad1be2c89b69c2b068fc378daa952ba7f163c4a11628f55a4df523b3ef60405160405180910390a46115bc8383836118de565b505050565b8173ffffffffffffffffffffffffffffffffffffffff168373ffffffffffffffffffffffffffffffffffffffff160361162f576040517f08c379a000000000000000000000000000000000000000000000000000000000815260040161162690612eca565b60405180910390fd5b80600560008573ffffffffffffffffffffffffffffffffffffffff1673ffffffffffffffffffffffffffffffffffffffff16815260200190815260200160002060008473ffffffffffffffffffffffffffffffffffffffff1673ffffffffffffffffffffffffffffffffffffffff16815260200190815260200160002060006101000a81548160ff0219169083151502179055508173ffffffffffffffffffffffffffffffffffffffff168373ffffffffffffffffffffffffffffffffffffffff167f17307eab39ab6107e8899845ad3d59bd9653f200f220920489ca2b5937696c31836040516117209190611f78565b60405180910390a3505050565b61173884848461135b565b611744848484846118e3565b611783576040517f08c379a000000000000000000000000000000000000000000000000000000000815260040161177a90612f5c565b60405180910390fd5b50505050565b606060405180602001604052806000815250905090565b60606117ab82611150565b6117ea576040517f08c379a00000000000000000000000000000000000000000000000000000000081526004016117e190612fee565b60405180910390fd5b60006117f4611789565b90506000815111611814576040518060200160405280600081525061183f565b8061181e84611a6a565b60405160200161182f929190612beb565b6040516020818303038152906040525b915050919050565b611861828260405180602001604052806000815250611bca565b5050565b61186e82611150565b6118ad576040517f08c379a00000000000000000000000000000000000000000000000000000000081526004016118a490613080565b60405180910390fd5b806006600084815260200190815260200160002090805190602001906118d4929190611e21565b505050565b505050565b505050565b60006119048473ffffffffffffffffffffffffffffffffffffffff16611c25565b15611a5d578373ffffffffffffffffffffffffffffffffffffffff1663150b7a0261192d6111bc565b8786866040518563ffffffff1660e01b815260040161194f94939291906130f5565b6020604051808303816000875af192505050801561198b57506040513d601f19601f820116820180604052508101906119889190613156565b60015b611a0d573d80600081146119bb576040519150601f19603f3d011682016040523d82523d6000602084013e6119c0565b606091505b506000815103611a05576040517f08c379a00000000000000000000000000000000000000000000000000000000081526004016119fc90612f5c565b60405180910390fd5b805181602001fd5b63150b7a0260e01b7bffffffffffffffffffffffffffffffffffffffffffffffffffffffff1916817bffffffffffffffffffffffffffffffffffffffffffffffffffffffff191614915050611a62565b600190505b949350505050565b606060008203611ab1576040518060400160405280600181526020017f30000000000000000000000000000000000000000000000000000000000000008152509050611bc5565b600082905060005b60008214611ae3578080611acc90613183565b915050600a82611adc91906131fa565b9150611ab9565b60008167ffffffffffffffff811115611aff57611afe612479565b5b6040519080825280601f01601f191660200182016040528015611b315781602001600182028036833780820191505090505b5090505b60008514611bbe57600182611b4a9190612df4565b9150600a85611b59919061322b565b6030611b659190612e28565b60f81b818381518110611b7b57611b7a61325c565b5b60200101907effffffffffffffffffffffffffffffffffffffffffffffffffffffffffffff1916908160001a905350600a85611bb791906131fa565b9450611b35565b8093505050505b919050565b611bd48383611c48565b611be160008484846118e3565b611c20576040517f08c379a0000000000000000000000000000000000000000000000000000000008152600401611c1790612f5c565b60405180910390fd5b505050565b6000808273ffffffffffffffffffffffffffffffffffffffff163b119050919050565b600073ffffffffffffffffffffffffffffffffffffffff168273ffffffffffffffffffffffffffffffffffffffff1603611cb7576040517f08c379a0000000000000000000000000000000000000000000000000000000008152600401611cae906132d7565b60405180910390fd5b611cc081611150565b15611d00576040517f08c379a0000000000000000000000000000000000000000000000000000000008152600401611cf790613343565b60405180910390fd5b611d0c600083836118d9565b6001600360008473ffffffffffffffffffffffffffffffffffffffff1673ffffffffffffffffffffffffffffffffffffffff1681526020019081526020016000206000828254611d5c9190612e28565b92505081905550816002600083815260200190815260200160002060006101000a81548173ffffffffffffffffffffffffffffffffffffffff021916908373ffffffffffffffffffffffffffffffffffffffff160217905550808273ffffffffffffffffffffffffffffffffffffffff16600073ffffffffffffffffffffffffffffffffffffffff167fddf252ad1be2c89b69c2b068fc378daa952ba7f163c4a11628f55a4df523b3ef60405160405180910390a4611e1d600083836118de565b5050565b828054611e2d90612780565b90600052602060002090601f016020900481019282611e4f5760008555611e96565b82601f10611e6857805160ff1916838001178555611e96565b82800160010185558215611e96579182015b82811115611e95578251825591602001919060010190611e7a565b5b509050611ea39190611ea7565b5090565b5b80821115611ec0576000816000905550600101611ea8565b5090565b6000604051905090565b600080fd5b600080fd5b60007fffffffff0000000000000000000000000000000000000000000000000000000082169050919050565b611f0d81611ed8565b8114611f1857600080fd5b50565b600081359050611f2a81611f04565b92915050565b600060208284031215611f4657611f45611ece565b5b6000611f5484828501611f1b565b91505092915050565b60008115159050919050565b611f7281611f5d565b82525050565b6000602082019050611f8d6000830184611f69565b92915050565b600081519050919050565b600082825260208201905092915050565b60005b83811015611fcd578082015181840152602081019050611fb2565b83811115611fdc576000848401525b50505050565b6000601f19601f8301169050919050565b6000611ffe82611f93565b6120088185611f9e565b9350612018818560208601611faf565b61202181611fe2565b840191505092915050565b600060208201905081810360008301526120468184611ff3565b905092915050565b6000819050919050565b6120618161204e565b811461206c57600080fd5b50565b60008135905061207e81612058565b92915050565b60006020828403121561209a57612099611ece565b5b60006120a88482850161206f565b91505092915050565b600073ffffffffffffffffffffffffffffffffffffffff82169050919050565b60006120dc826120b1565b9050919050565b6120ec816120d1565b82525050565b600060208201905061210760008301846120e3565b92915050565b612116816120d1565b811461212157600080fd5b50565b6000813590506121338161210d565b92915050565b600080604083850312156121505761214f611ece565b5b600061215e85828601612124565b925050602061216f8582860161206f565b9150509250929050565b60008060006060848603121561219257612191611ece565b5b60006121a086828701612124565b93505060206121b186828701612124565b92505060406121c28682870161206f565b9150509250925092565b6000602082840312156121e2576121e1611ece565b5b60006121f084828501612124565b91505092915050565b6122028161204e565b82525050565b600060208201905061221d60008301846121f9565b92915050565b600081519050919050565b600082825260208201905092915050565b6000819050602082019050919050565b612258816120d1565b82525050565b6122678161204e565b82525050565b61227681611f5d565b82525050565b60c082016000820151612292600085018261224f565b5060208201516122a5602085018261224f565b5060408201516122b8604085018261225e565b5060608201516122cb606085018261225e565b5060808201516122de608085018261225e565b5060a08201516122f160a085018261226d565b50505050565b6000612303838361227c565b60c08301905092915050565b6000602082019050919050565b600061232782612223565b612331818561222e565b935061233c8361223f565b8060005b8381101561236d57815161235488826122f7565b975061235f8361230f565b925050600181019050612340565b5085935050505092915050565b60006020820190508181036000830152612394818461231c565b905092915050565b600080600080608085870312156123b6576123b5611ece565b5b60006123c487828801612124565b94505060206123d587828801612124565b93505060406123e68782880161206f565b92505060606123f78782880161206f565b91505092959194509250565b61240c81611f5d565b811461241757600080fd5b50565b60008135905061242981612403565b92915050565b6000806040838503121561244657612445611ece565b5b600061245485828601612124565b92505060206124658582860161241a565b9150509250929050565b600080fd5b600080fd5b7f4e487b7100000000000000000000000000000000000000000000000000000000600052604160045260246000fd5b6124b182611fe2565b810181811067ffffffffffffffff821117156124d0576124cf612479565b5b80604052505050565b60006124e3611ec4565b90506124ef82826124a8565b919050565b600067ffffffffffffffff82111561250f5761250e612479565b5b61251882611fe2565b9050602081019050919050565b82818337600083830152505050565b6000612547612542846124f4565b6124d9565b90508281526020810184848401111561256357612562612474565b5b61256e848285612525565b509392505050565b600082601f83011261258b5761258a61246f565b5b813561259b848260208601612534565b91505092915050565b600080600080608085870312156125be576125bd611ece565b5b60006125cc87828801612124565b94505060206125dd87828801612124565b93505060406125ee8782880161206f565b925050606085013567ffffffffffffffff81111561260f5761260e611ed3565b5b61261b87828801612576565b91505092959194509250565b600067ffffffffffffffff82111561264257612641612479565b5b61264b82611fe2565b9050602081019050919050565b600061266b61266684612627565b6124d9565b90508281526020810184848401111561268757612686612474565b5b612692848285612525565b509392505050565b600082601f8301126126af576126ae61246f565b5b81356126bf848260208601612658565b91505092915050565b6000602082840312156126de576126dd611ece565b5b600082013567ffffffffffffffff8111156126fc576126fb611ed3565b5b6127088482850161269a565b91505092915050565b6000806040838503121561272857612727611ece565b5b600061273685828601612124565b925050602061274785828601612124565b9150509250929050565b7f4e487b7100000000000000000000000000000000000000000000000000000000600052602260045260246000fd5b6000600282049050600182168061279857607f821691505b6020821081036127ab576127aa612751565b5b50919050565b7f4552433732313a20617070726f76656420717565727920666f72206e6f6e657860008201527f697374656e7420746f6b656e0000000000000000000000000000000000000000602082015250565b600061280d602c83611f9e565b9150612818826127b1565b604082019050919050565b6000602082019050818103600083015261283c81612800565b9050919050565b7f4552433732313a20617070726f76616c20746f2063757272656e74206f776e6560008201527f7200000000000000000000000000000000000000000000000000000000000000602082015250565b600061289f602183611f9e565b91506128aa82612843565b604082019050919050565b600060208201905081810360008301526128ce81612892565b9050919050565b7f4552433732313a20617070726f76652063616c6c6572206973206e6f74206f7760008201527f6e6572206e6f7220617070726f76656420666f7220616c6c0000000000000000602082015250565b6000612931603883611f9e565b915061293c826128d5565b604082019050919050565b6000602082019050818103600083015261296081612924565b9050919050565b7f4552433732313a207472616e736665722063616c6c6572206973206e6f74206f60008201527f776e6572206e6f7220617070726f766564000000000000000000000000000000602082015250565b60006129c3603183611f9e565b91506129ce82612967565b604082019050919050565b600060208201905081810360008301526129f2816129b6565b9050919050565b7f4552433732313a206f776e657220717565727920666f72206e6f6e657869737460008201527f656e7420746f6b656e0000000000000000000000000000000000000000000000602082015250565b6000612a55602983611f9e565b9150612a60826129f9565b604082019050919050565b60006020820190508181036000830152612a8481612a48565b9050919050565b7f4552433732313a2062616c616e636520717565727920666f7220746865207a6560008201527f726f206164647265737300000000000000000000000000000000000000000000602082015250565b6000612ae7602a83611f9e565b9150612af282612a8b565b604082019050919050565b60006020820190508181036000830152612b1681612ada565b9050919050565b7f45524337323155524953746f726167653a2055524920717565727920666f722060008201527f6e6f6e6578697374656e7420746f6b656e000000000000000000000000000000602082015250565b6000612b79603183611f9e565b9150612b8482612b1d565b604082019050919050565b60006020820190508181036000830152612ba881612b6c565b9050919050565b600081905092915050565b6000612bc582611f93565b612bcf8185612baf565b9350612bdf818560208601611faf565b80840191505092915050565b6000612bf78285612bba565b9150612c038284612bba565b91508190509392505050565b7f4552433732313a206f70657261746f7220717565727920666f72206e6f6e657860008201527f697374656e7420746f6b656e0000000000000000000000000000000000000000602082015250565b6000612c6b602c83611f9e565b9150612c7682612c0f565b604082019050919050565b60006020820190508181036000830152612c9a81612c5e565b9050919050565b7f4552433732313a207472616e736665722066726f6d20696e636f72726563742060008201527f6f776e6572000000000000000000000000000000000000000000000000000000602082015250565b6000612cfd602583611f9e565b9150612d0882612ca1565b604082019050919050565b60006020820190508181036000830152612d2c81612cf0565b9050919050565b7f4552433732313a207472616e7366657220746f20746865207a65726f2061646460008201527f7265737300000000000000000000000000000000000000000000000000000000602082015250565b6000612d8f602483611f9e565b9150612d9a82612d33565b604082019050919050565b60006020820190508181036000830152612dbe81612d82565b9050919050565b7f4e487b7100000000000000000000000000000000000000000000000000000000600052601160045260246000fd5b6000612dff8261204e565b9150612e0a8361204e565b925082821015612e1d57612e1c612dc5565b5b828203905092915050565b6000612e338261204e565b9150612e3e8361204e565b9250827fffffffffffffffffffffffffffffffffffffffffffffffffffffffffffffffff03821115612e7357612e72612dc5565b5b828201905092915050565b7f4552433732313a20617070726f766520746f2063616c6c657200000000000000600082015250565b6000612eb4601983611f9e565b9150612ebf82612e7e565b602082019050919050565b60006020820190508181036000830152612ee381612ea7565b9050919050565b7f4552433732313a207472616e7366657220746f206e6f6e20455243373231526560008201527f63656976657220696d706c656d656e7465720000000000000000000000000000602082015250565b6000612f46603283611f9e565b9150612f5182612eea565b604082019050919050565b60006020820190508181036000830152612f7581612f39565b9050919050565b7f4552433732314d657461646174613a2055524920717565727920666f72206e6f60008201527f6e6578697374656e7420746f6b656e0000000000000000000000000000000000602082015250565b6000612fd8602f83611f9e565b9150612fe382612f7c565b604082019050919050565b6000602082019050818103600083015261300781612fcb565b9050919050565b7f45524337323155524953746f726167653a2055524920736574206f66206e6f6e60008201527f6578697374656e7420746f6b656e000000000000000000000000000000000000602082015250565b600061306a602e83611f9e565b91506130758261300e565b604082019050919050565b600060208201905081810360008301526130998161305d565b9050919050565b600081519050919050565b600082825260208201905092915050565b60006130c7826130a0565b6130d181856130ab565b93506130e1818560208601611faf565b6130ea81611fe2565b840191505092915050565b600060808201905061310a60008301876120e3565b61311760208301866120e3565b61312460408301856121f9565b818103606083015261313681846130bc565b905095945050505050565b60008151905061315081611f04565b92915050565b60006020828403121561316c5761316b611ece565b5b600061317a84828501613141565b91505092915050565b600061318e8261204e565b91507fffffffffffffffffffffffffffffffffffffffffffffffffffffffffffffffff82036131c0576131bf612dc5565b5b600182019050919050565b7f4e487b7100000000000000000000000000000000000000000000000000000000600052601260045260246000fd5b60006132058261204e565b91506132108361204e565b9250826132205761321f6131cb565b5b828204905092915050565b60006132368261204e565b91506132418361204e565b925082613251576132506131cb565b5b828206905092915050565b7f4e487b7100000000000000000000000000000000000000000000000000000000600052603260045260246000fd5b7f4552433732313a206d696e7420746f20746865207a65726f2061646472657373600082015250565b60006132c1602083611f9e565b91506132cc8261328b565b602082019050919050565b600060208201905081810360008301526132f0816132b4565b9050919050565b7f4552433732313a20746f6b656e20616c7265616479206d696e74656400000000600082015250565b600061332d601c83611f9e565b9150613338826132f7565b602082019050919050565b6000602082019050818103600083015261335c81613320565b905091905056fea26469706673582212206a6f86f70c57895d937fb44c827ec8cf2a6a655ad420436a975fa4a85d030dc264736f6c634300080d0033",
  "immutableReferences": {},
  "source": "// SPDX-License-Identifier: MIT\r\npragma solidity ^0.8.4;\r\n\r\nimport \"@openzeppelin/contracts/token/ERC721/extensions/ERC721URIStorage.sol\";\r\n\r\n\r\nerror NotTokenOwner();\r\nerror TokenInMarket();\r\nerror TokenAlreadyRealization();\r\nerror TokenNotExist();\r\n\r\ncontract NFT is ERC721URIStorage {\r\n\r\n  uint public tokenCount;\r\n\r\n  struct TokenData {\r\n\r\n    // address ownerAddr;\r\n\r\n    bool realization;\r\n  }\r\n\r\n  struct TokenReciept {\r\n\r\n    address seller;\r\n\r\n    address buyer;\r\n\r\n    uint tokenId;\r\n\r\n    uint price;\r\n\r\n    uint transacTimeStamp;\r\n\r\n    bool realized;\r\n\r\n  }\r\n\r\n  mapping(uint => TokenReciept[]) internal _tokenTracker;\r\n\r\n  mapping(uint256 => TokenData) internal _tokenData;\r\n\r\n  constructor() ERC721(\"DApp NFT\", \"DAPP\") {}\r\n\r\n  function mint(string memory _tokenURI) external returns (uint) {\r\n    unchecked {\r\n      tokenCount ++;\r\n      _safeMint(msg.sender, tokenCount);\r\n      _tokenData[tokenCount].realization = false;\r\n      _setTokenURI(tokenCount, _tokenURI);\r\n\r\n      return(tokenCount);\r\n    }\r\n  }\r\n\r\n  function TokenTracking(uint _tokenId) public view returns(TokenReciept[] memory) {\r\n    if(0 >= _tokenId || _tokenId > tokenCount) revert TokenNotExist();\r\n    TokenReciept[] storage tokenReciepts = _tokenTracker[_tokenId];\r\n    return tokenReciepts;\r\n  }\r\n\r\n  function addTokenReceipt(address _seller, address _buyer, uint _price, uint _tokenId) external {\r\n    TokenReciept[] storage tokenRecipts = _tokenTracker[_tokenId];\r\n    tokenRecipts.push(TokenReciept(\r\n      _seller,\r\n      _buyer,\r\n      _tokenId,\r\n      _price,\r\n      block.timestamp,\r\n      bool(isRealization(_tokenId))\r\n    ));\r\n  }\r\n\r\n\r\n\r\n  function isRealization(uint _tokenId) public view returns (bool) {\r\n    return _tokenData[_tokenId].realization;\r\n  }\r\n\r\n\r\n  function Realization(address marketplaceAddr, uint _tokenId) public {\r\n    if (ownerOf(_tokenId) != msg.sender) revert NotTokenOwner();\r\n    if (marketplaceAddr == ownerOf(_tokenId)) revert TokenInMarket();\r\n    if (isRealization(_tokenId) == true ) revert TokenAlreadyRealization();\r\n    _tokenData[_tokenId].realization = true;\r\n\r\n  }\r\n}",
  "sourcePath": "C:\\Users\\SSAFY\\Desktop\\S06P22E206\\frontend\\src\\contracts\\NFT.sol",
  "compiler": {
    "name": "solc",
    "version": "0.8.13+commit.abaa5c0e.Emscripten.clang"
  },
  "schemaVersion": "3.4.6",
  "updatedAt": "2022-04-07T16:50:54.347Z",
  "networkType": "ethereum",
  "devdoc": {
    "kind": "dev",
    "methods": {
      "approve(address,uint256)": {
        "details": "See {IERC721-approve}."
      },
      "balanceOf(address)": {
        "details": "See {IERC721-balanceOf}."
      },
      "getApproved(uint256)": {
        "details": "See {IERC721-getApproved}."
      },
      "isApprovedForAll(address,address)": {
        "details": "See {IERC721-isApprovedForAll}."
      },
      "name()": {
        "details": "See {IERC721Metadata-name}."
      },
      "ownerOf(uint256)": {
        "details": "See {IERC721-ownerOf}."
      },
      "safeTransferFrom(address,address,uint256)": {
        "details": "See {IERC721-safeTransferFrom}."
      },
      "safeTransferFrom(address,address,uint256,bytes)": {
        "details": "See {IERC721-safeTransferFrom}."
      },
      "setApprovalForAll(address,bool)": {
        "details": "See {IERC721-setApprovalForAll}."
      },
      "supportsInterface(bytes4)": {
        "details": "See {IERC165-supportsInterface}."
      },
      "symbol()": {
        "details": "See {IERC721Metadata-symbol}."
      },
      "tokenURI(uint256)": {
        "details": "See {IERC721Metadata-tokenURI}."
      },
      "transferFrom(address,address,uint256)": {
        "details": "See {IERC721-transferFrom}."
      }
    },
    "version": 1
  },
  "userdoc": {
    "kind": "user",
    "methods": {},
    "version": 1
  }
}